:020000040800F2
:1000000000000220610D0008710700087707000852
:100010007D0700088307000889070008000000002A
:100020000000000000000000000000008F07000832
:100030009D07000800000000AB070008B907000892
:10004000B50D0008B50D0008B50D0008B50D000888
:10005000B50D0008B50D0008B50D0008B50D000878
:10006000B50D0008B50D0008B50D0008B50D000868
:10007000B50D0008B50D0008B50D0008B50D000858
:10008000B50D0008B50D0008B50D0008B50D000848
:10009000B50D0008B50D0008B50D0008B50D000838
:1000A000B50D0008B50D0008B50D0008B50D000828
:1000B000B50D0008B50D0008B50D0008B50D000818
:1000C000B50D0008B50D0008B50D0008B50D000808
:1000D000B50D0008B50D0008B50D0008B50D0008F8
:1000E000B50D0008B50D0008B50D0008B50D0008E8
:1000F000B50D0008B50D0008B50D0008B50D0008D8
:10010000B50D0008B50D0008B50D0008B50D0008C7
:10011000B50D0008B50D0008B50D0008B50D0008B7
:10012000B50D0008B50D0008B50D0008B50D0008A7
:10013000B50D00080000000000000000B50D00082B
:10014000B50D0008B50D0008B50D0008B50D000887
:10015000B50D0008B50D0008B50D0008B50D000877
:10016000B50D0008B50D0008B50D0008B50D000867
:10017000B50D0008B50D0008B50D00080000000021
:1001800000000000B50D00080000000000000000A5
:10019000B50D00080000000000000000B50D0008CB
:1001A000000000000000000000000000B50D000885
:1001B000B50D0008B50D0008B50D0008B50D000817
:0401C000B50D000871
:1001C40010B5054C237833B9044B13B10448AFF38D
:1001D40000800123237010BD0C00002000000000EB
:1001E4000C29000808B5034B1BB103490348AFF3BE
:1001F400008008BD00000000100000200C29000849
:1002040053B94AB9002908BF00281CBF4FF0FF3179
:100214004FF0FF3000F070B9ADF1080C6DE904CE79
:1002240000F006F8DDF804E0DDE9022304B07047CD
:100234002DE9F047089E0D4604460F46002B4AD18F
:100244008A42944665D9B2FA82F343B102FA03FCB6
:10025400C3F120029F4020FA02F217439C404FEA68
:100264001C4E1FFA8CF5B7FBFEF1220C0EFB117726
:1002740042EA074201FB05F090420AD91CEB020254
:1002840001F1FF3780F01C81904240F2198102395C
:100294006244121AA4B2B2FBFEF00EFB102244EA2E
:1002A400024400FB05F5A5420AD91CEB040400F145
:1002B400FF3280F00781A54240F204816444023891
:1002C40040EA0140641B00211EB1DC400023C6E962
:1002D4000043BDE8F0878B4208D9002E00F0ED8082
:1002E4000021C6E900050846BDE8F087B3FA83F1AA
:1002F400002949D1AB4202D3824200F2F880841A29
:1003040065EB030201201746002EE2D0C6E9004740
:10031400DFE702B9FFDEB2FA82F3002B40F09080EF
:100324008A1A4FEA1C471FFA8CFE0121B2FBF7F52B
:1003340007FB1520220C42EA00420EFB05F0904216
:1003440008D91CEB020205F1FF3802D2904200F2F8
:10035400CB804546121AA4B2B2FBF7F007FB102279
:1003640044EA02440EFB00FEA64508D91CEB040433
:1003740000F1FF3202D2A64500F2BB801046A4EB86
:100384000E0440EA05409FE7C1F120078B4022FAA2
:1003940007FC4CEA030C05FA01F420FA07F3FD40CC
:1003A4004FEA1C492343B5FBF9F81FFA8CFE09FBFD
:1003B40018551C0C44EA054408FB0EF5A54202FA44
:1003C40001F200FA01F00BD91CEB040408F1FF3A26
:1003D40080F08880A54240F28580A8F10208644438
:1003E400641B9DB2B4FBF9F309FB134445EA0444CE
:1003F40003FB0EFEA64508D91CEB040403F1FF35EC
:100404006CD2A6456AD9023B644443EA0843A3FB81
:100414000295A4EB0E04AC42C846AE4656D353D064
:1004240056B1B0EB080264EB0E0404FA07F7CA40B5
:10043400CC401743C6E9007418460021BDE8F08794
:10044400C3F1200102FA03FC20FA01F225FA01F1BA
:100454009D402A434FEA1C471FFA8CFEB1FBF7F07C
:1004640007FB1015110C41EA054100FB0EF58D4206
:1004740004FA03F408D91CEB010100F1FF382FD270
:100484008D422DD902386144491B92B2B1FBF7F574
:1004940007FB151142EA014205FB0EF1914208D90E
:1004A4001CEB020205F1FF3816D2914214D9023D29
:1004B4006244521A45EA004138E73146304608E7BB
:1004C4003946E6E61046FBE64845A9D2B9EB0208F0
:1004D40065EB0C0E013BA3E74546EAE72B4694E7A0
:1004E4004046D1E7D0467BE7023D624432E7084606
:1004F4000AE76444023842E7704700BFB0B58EB0E3
:1005040000AF00F057FC00F03FF81C4B1C4A1A6087
:100514001A4B4FF461425A60184B00229A60174BF1
:100524000022DA60154B00221A61144B00229A61F2
:10053400124B0C225A61114B0022DA610F4801F070
:10054400D7FC0346002B00D0FEE70E4B3C1D1D4696
:100554000FCD0FC42B68236007F118031E2200215E
:10056400184602F0A5F9391D4FF0FF331422034851
:1005740001F00EFD00BF00BF00BFFBE72800002014
:10058400004800402429000880B594B000AF07F16A
:100594001C0334220021184602F08AF907F10803EB
:1005A40000221A605A609A60DA601A6100237B6044
:1005B4002C4B1B6C2B4A43F080531364294B1B6C4C
:1005C40003F080537B607B6800233B60264B1B68F1
:1005D400254A43F440431360234B1B6803F4404310
:1005E4003B603B680223FB610123BB621023FB6277
:1005F40002237B630023BB630823FB63B4233B64B4
:1006040002237B640223BB640223FB6407F11C0303
:10061400184601F0CFF90346002B01D000F026F86C
:1006240000F0B4FE0346002B01D000F01FF80F23A6
:10063400BB600223FB6000233B614FF4A0537B614A
:100644004FF48053BB6107F108030521184600F0FD
:10065400EDFE0346002B01D000F008F800BF503730
:10066400BD4680BD003802400070004080B400AF39
:1006740072B600BFFEE7000080B58AB000AF7860B4
:1006840000233B61234B1B6B224A43F00803136393
:10069400204B1B6B03F008033B613B690023FB60A9
:1006A4001C4B1B6B1B4A43F008031363194B1B6B56
:1006B40003F00803FB60FB680023BB60154B1B6C55
:1006C400144A43F480231364124B1B6C03F48023F9
:1006D400BB60BB684FF480737B610223BB61012361
:1006E400FB6103233B6207237B6207F11403194672
:1006F400094800F0B7FC4FF400737B6107237B6269
:1007040007F114031946044800F0ACFC00BF283775
:10071400BD4680BD00380240000C024080B483B066
:1007240000AF00237B60104B5B6C0F4A43F48043A3
:1007340053640D4B5B6C03F480437B607B68002344
:100744003B60094B1B6C084A43F080531364064B0F
:100754001B6C03F080533B603B6800BF0C37BD4605
:100764005DF8047B704700BF0038024080B400AFDE
:10077400FEE780B400AFFEE780B400AFFEE780B4CC
:1007840000AFFEE780B400AFFEE780B400AF00BF67
:10079400BD465DF8047B704780B400AF00BFBD4622
:1007A4005DF8047B704780B400AF00BFBD465DF8C0
:1007B400047B704780B500AF00F04EFB00BF80BDE6
:1007C40080B400AF064BD3F88830054A43F4700375
:1007D400C2F8883000BFBD465DF8047B704700BF97
:1007E40000ED00E080B483B000AF78607B68002245
:1007F4001A707B6800225A707B68002283F8662096
:1008040000BF0C37BD465DF8047B704780B483B0ED
:1008140000AF78607B681B78632B05D97B681B78F5
:10082400643BDAB27B681A707B685B78632B05D90A
:100834007B685B78643BDAB27B685A707B6893F8B8
:100844006630642B03D97B68642283F8662000BF7A
:100854000C37BD465DF8047B704780B582B000AFAD
:1008640078600B46FB707B685B781A467B681344A0
:10087400FA789A707B685B780133DAB27B685A70D5
:100884007B6893F866300133DAB27B6883F86620BC
:100894007B6893F86630642B05D17B681B78013341
:1008A400DAB27B681A707868FFF7B0FF00BF0837C8
:1008B400BD4680BD80B586B000AFF860B960134610
:1008C400FB710023FB750AE0FB7DBA6813441B78B7
:1008D4001946F868FFF7C1FFFB7D0133FB75FA7D0C
:1008E400FB799A42F0D300BF00BF1837BD4680BDE4
:1008F40080B485B000AF78600B46FB707B681A78D3
:10090400FB781344FB7302E0FB7B643BFB73FB7BD0
:10091400642BF9D8FB7B7A6813449B781846143708
:10092400BD465DF8047B704790B587B000AFF860B2
:10093400B9601346FB710023FB754BE0FB7D194640
:10094400F868FFF7D5FF03461A46FB7993423ED178
:10095400FB7D0933FA6892F86620934237DAFB7D0F
:100964000933DBB21946F868FFF7C2FF0346452B8B
:100974002DD10023BB750EE0FA7DBB7D1344D9B2A3
:10098400BB7DBA68D418F868FFF7B2FF034623703A
:10099400BB7D0133BB75BB7D092BEDD9FB681A7890
:1009A400FB7D1344DBB20A33DAB2FB681A70FB68CE
:1009B40093F86620FB7DD31ADBB20A3BDAB2FB68FC
:1009C40083F86620F868FFF721FF01230AE0FB7D26
:1009D4000133FB75FA7DFB6893F86630093B9A4254
:1009E400ACDB002318461C37BD4690BD80B594B0DF
:1009F40000AF00F0DFF907F11C0334220021184690
:100A040001F056FF07F1080300221A605A609A6049
:100A1400DA601A6100237B603B4B1B6C3A4A43F05B
:100A240080531364384B1B6C03F080537B607B68EA
:100A340000233B60354B1B68344A43F44043136046
:100A4400324B1B6803F440433B603B680223FB6169
:100A54000123BB621023FB6202237B630023BB637D
:100A64000823FB63B4233B6402237B640223BB643B
:100A74000223FB6407F11C03184600F09BFF0346A6
:100A8400002B00D0FEE700F081FC0346002B00D0D1
:100A9400FEE70F23BB600223FB6000233B614FF49E
:100AA400A0537B614FF48053BB6107F10803052118
:100AB400184600F0BBFC0346002B00D0FEE7144BA5
:100AC400144A1A60124B4FF461425A60104B0022D0
:100AD4009A600F4B0022DA600D4B00221A610C4B16
:100AE40000229A610A4B0C225A61094B0022DA61F6
:100AF400074801F0FDF90346002B00D0FEE700BFD4
:100B04005037BD4680BD00BF003802400070004031
:100B1400280000200048004080B5B2B002AF002396
:100B2400C7F8AC3007F108031846FFF75BFE00BFB7
:100B3400BB1D07F17C010022009211226A4801F0DA
:100B4400B2FAFB88002BF3D0FB88DAB207F17C0100
:100B540007F108031846FFF7ADFE07F1700107F12E
:100B6400080349221846FFF7DFFE034687F8AB3037
:100B740097F8AB30002BDBD0D7F87130C7F8A4302E
:100B8400D7F87530C7F8A0304FF0FF330F2257491C
:100B9400554801F0FDF900BF07F108031846FFF7B7
:100BA40021FE00BFD7F8A030C7F8BC300023C7F837
:100BB400B8300023C7F8B43051E03B1D07F17C0185
:100BC400002200921122484801F06DFABB88002BE4
:100BD400F3D0BB88DAB207F17C0107F108031846A9
:100BE400FFF768FE07F1700107F108034422184675
:100BF400FFF79AFE034687F8973097F89730002B53
:100C0400DBD0D7F8B8300133C7F8B830D7F8BC30E8
:100C1400C7F89030002387F8B33011E097F8B33069
:100C24005A1C97F8B330D7F890100B44C0323A44AA
:100C340012F8502C1A7097F8B330013387F8B33098
:100C440097F8B330072BE9D9D7F8BC300833C7F885
:100C5400BC3000BFD7F8B4300133C7F8B430D7F88C
:100C6400B420D7F8A4309A42A7D300BFBB1C07F125
:100C74007C010022009211221B4801F014FA7B88A7
:100C8400002BF3D07B88DAB207F17C0107F108036B
:100C94001846FFF70FFE07F1700107F10803492218
:100CA4001846FFF741FE034687F89F3097F89F30B8
:100CB400002BDBD0D7F87130C7F898304FF0FF33F2
:100CC40010220B49084801F063F900BF07F108033B
:100CD4001846FFF787FD00BFD7F89830984700BF44
:100CE400C037BD4680BD00BF280000205829000839
:100CF40068290008B0B58EB000AFFFF777FE154B3A
:100D04003C1D1D4628686968AA68EB680FC42B7CE3
:100D1400237007F1150321220021184601F0C8FDB4
:100D2400002387F837300BE0391D4FF0FF331122D1
:100D3400094801F02DF997F83730013387F8373037
:100D440097F83730002BEFD0FFF7E6FE00BF3837B7
:100D5400BD46B0BD7C29000828000020DFF838D04B
:100D6400FFF72EFD0D480E490E4A002302E0D45829
:100D7400C4500433C4188C42F9D30B4A0B4C0023DF
:100D840001E013600432A242FBD301F099FDFFF7A6
:100D9400B1FFFFF7B3FB7047000002200000002002
:100DA4000C000020B82900080C000020740000206A
:100DB400FEE7000080B500AF0E4B1B680D4A43F4FC
:100DC400007313600B4B1B680A4A43F4806313607F
:100DD400084B1B68074A43F480731360032000F038
:100DE4000DF90F2000F008F8FFF798FC00231846CF
:100DF40080BD00BF003C024080B582B000AF786087
:100E0400124B1A68124B1B7819464FF47A73B3FBD2
:100E1400F1F3B2FBF3F3184600F017F90346002B85
:100E240001D001230EE07B680F2B0AD800227968D9
:100E34004FF0FF3000F0EDF8064A7B6813600023A2
:100E440000E0012318460837BD4680BD000000209D
:100E5400080000200400002080B400AF064B1B787B
:100E64001A46064B1B681344044A136000BFBD4670
:100E74005DF8047B704700BF08000020700000206C
:100E840080B400AF034B1B681846BD465DF8047B75
:100E9400704700BF7000002080B485B000AF786058
:100EA4007B6803F00703FB600C4BDB68BB60BA682C
:100EB4004FF6FF031340BB60FB681A02BB68134381
:100EC40043F0BF6343F40033BB60044ABB68D360A0
:100ED40000BF1437BD465DF8047B704700ED00E0A9
:100EE40080B400AF044BDB681B0A03F00703184609
:100EF400BD465DF8047B704700ED00E080B483B02C
:100F040000AF03463960FB7197F90730002B0ADB09
:100F14003B68DAB20C4997F907301201D2B20B449C
:100F240083F800230AE03B68DAB20849FB7903F04E
:100F34000F03043B1201D2B20B441A7600BF0C37E4
:100F4400BD465DF8047B704700E100E000ED00E081
:100F540080B489B000AFF860B9607A60FB6803F0D0
:100F64000703FB61FB69C3F10703042B28BF0423B8
:100F7400BB61FB690433062B02D9FB69033B00E028
:100F840000237B614FF0FF32BB6902FA03F3DA43BB
:100F9400BB681A407B699A404FF0FF317B6901FAC4
:100FA40003F3D9437B680B40134318462437BD46EB
:100FB4005DF8047B7047000080B582B000AF7860B4
:100FC4007B68013BB3F1807F01D301230FE00A4A20
:100FD4007B68013B53600F214FF0FF30FFF78EFF1A
:100FE400054B00229A60044B07221A60002318461E
:100FF4000837BD4680BD00BF10E000E080B582B078
:1010040000AF78607868FFF747FF00BF0837BD4638
:1010140080BD80B586B000AF0346B9607A60FB73CB
:1010240000237B61FFF75CFF78617A68B9687869AF
:10103400FFF78EFF024697F90F3011461846FFF767
:101044005DFF00BF1837BD4680BD80B582B000AFDC
:1010540078607868FFF7B0FF034618460837BD4646
:1010640080BD000080B489B000AF7860396000238F
:101074007B6100233B610023BB610023FB6165E1CD
:101084000122FB6902FA03F37B613B681B687A69FE
:1010940013403B613A697B699A4240F054813B6852
:1010A4005B6803F00303012B05D03B685B6803F026
:1010B4000303022B30D17B689B68BB61FB695B0037
:1010C400032202FA03F3DB43BA691340BB613B68B2
:1010D400DA68FB695B0002FA03F3BA691343BB6184
:1010E4007B68BA699A607B685B68BB610122FB69B3
:1010F40002FA03F3DB43BA691340BB613B685B68E4
:101104001B0903F00102FB6902FA03F3BA691343F2
:10111400BB617B68BA695A603B685B6803F0030390
:10112400032B17D07B68DB68BB61FB695B00032280
:1011340002FA03F3DB43BA691340BB613B689A6864
:10114400FB695B0002FA03F3BA691343BB617B6872
:10115400BA69DA603B685B6803F00303022B23D1AE
:10116400FB69DA087B68083253F82230BB61FB69FB
:1011740003F007039B000F2202FA03F3DB43BA696F
:101184001340BB613B681A69FB6903F007039B00CA
:1011940002FA03F3BA691343BB61FB69DA087B689B
:1011A4000832B96943F822107B681B68BB61FB698C
:1011B4005B00032202FA03F3DB43BA691340BB6109
:1011C4003B685B6803F00302FB695B0002FA03F30C
:1011D400BA691343BB617B68BA691A603B685B6890
:1011E40003F44033002B00F0AE800023FB605D4B22
:1011F4005B6C5C4A43F4804353645A4B5B6C03F46A
:101204008043FB60FB68584AFB699B08023352F831
:101214002330BB61FB6903F003039B000F2202FA36
:1012240003F3DB43BA691340BB617B684F4A9342C3
:1012340025D07B684E4A93421FD07B684D4A934227
:1012440019D07B684C4A934213D07B684B4A934233
:101254000DD07B684A4A934207D07B68494A93423F
:1012640001D106230CE007230AE0052308E0042348
:1012740006E0032304E0022302E0012300E000234C
:10128400FA6902F0030292009340BA691343BB6106
:101294003549FB699B080233BA6941F823203A4B6C
:1012A4009B68BB613B69DB43BA691340BB613B6824
:1012B4005B6803F48013002B03D0BA693B691343C2
:1012C400BB61314ABB6993602F4BDB68BB613B69EF
:1012D400DB43BA691340BB613B685B6803F40013EA
:1012E400002B03D0BA693B691343BB61264ABB692F
:1012F400D360254B5B68BB613B69DB43BA69134030
:10130400BB613B685B6803F40033002B03D0BA690C
:101314003B691343BB611C4ABB6953601A4B1B688E
:10132400BB613B69DB43BA691340BB613B685B68E3
:1013340003F48033002B03D0BA693B691343BB61C8
:10134400114ABB691360FB690133FB61FB690F2B15
:101354007FF696AE00BF00BF2437BD465DF8047B20
:10136400704700BF003802400038014000000240CE
:101374000004024000080240000C02400010024039
:101384000014024000180240003C014080B582B0C5
:1013940000AF00237B6000233B60204B1B6C1F4A83
:1013A40043F0805313641D4B1B6C03F080533B606C
:1013B4003B681B4B01221A60FFF762FD786009E06D
:1013C400FFF75EFD02467B68D31AB3F57A7F01D935
:1013D40003231FE0134B5B6803F48033B3F5803FB2
:1013E400EED1114B01221A60FFF74AFD786009E043
:1013F400FFF746FD02467B68D31AB3F57A7F01D91D
:10140400032307E0074B5B6803F40033B3F5003FA5
:10141400EED1002318460837BD4680BD003802408F
:1014240040000E420070004044000E4280B584B07B
:1014340000AF786039607B68002B01D10123CCE0D8
:10144400684B1B6803F00F033A689A420CD9654B4A
:101454003A68D2B21A70634B1B6803F00F033A6800
:101464009A4201D00123B8E07B681B6803F00203B1
:10147400002B20D07B681B6803F00403002B05D0ED
:10148400594B9B68584A43F4E05393607B681B684C
:1014940003F00803002B05D0534B9B68524A43F4D6
:1014A40060439360504B9B6823F0F0027B689B6819
:1014B4004D4913438B607B681B6803F00103002BC9
:1014C40044D07B685B68012B07D1474B1B6803F44E
:1014D4000033002B19D101237FE07B685B68022B6A
:1014E40003D07B685B68032B07D13F4B1B6803F079
:1014F4000073002B09D101236FE03B4B1B6803F001
:101504000203002B01D1012367E0374B9B6823F0D2
:1015140003027B685B68344913438B60FFF7B0FCBC
:10152400F8600AE0FFF7ACFC0246FB68D31A41F20C
:101534008832934201D903234FE02B4B9B6803F07D
:101544000C027B685B689B009A42EBD1254B1B68BD
:1015540003F00F033A689A420CD2224B3A68D2B293
:101564001A70204B1B6803F00F033A689A4201D0AB
:10157400012332E07B681B6803F00403002B08D0CE
:10158400194B9B6823F4E0527B68DB6816491343CC
:101594008B607B681B6803F00803002B09D0124B97
:1015A4009B6823F460427B681B69DB000E4913438C
:1015B4008B6000F055F802460B4B9B681B0903F047
:1015C4000F030A49CB5C22FA03F3094A1360094B5F
:1015D4001B681846FFF710FC002318461037BD4659
:1015E40080BD00BF003C0240003802409029000842
:1015F400000000200400002080B400AF034B1B68EF
:101604001846BD465DF8047B704700BF000000200B
:1016140080B500AFFFF7F0FF0246054B9B689B0ABD
:1016240003F007030349CB5C22FA03F3184680BD99
:1016340000380240A029000880B500AFFFF7DCFFA6
:101644000246054B9B685B0B03F007030349CB5C25
:1016540022FA03F3184680BD00380240A02900088E
:101664002DE9B04FA6B000AF0023C7F88C3000239B
:10167400C7F894300023C7F888300023C7F88430B3
:101684000023C7F89030C84B9B6803F00C030C2B65
:1016940000F27E8101A252F823F000BFD5160008A3
:1016A400951900089519000895190008DD16000819
:1016B400951900089519000895190008E516000801
:1016C4009519000895190008951900084F18000885
:1016D400B64BC7F890305FE1B54BC7F890305BE18B
:1016E400B14B5B6803F03F03C7F88C30AE4B5B68CB
:1016F40003F48003002B31D0AB4B5B689B090022C1
:10170400BB66FA66BB6EC3F308033B6600237B66C5
:10171400A74BD7E918452A4603FB02F200232146CA
:1017240001FB03F31344A24A2146A1FB0212FA6708
:101734000A46BA67FA6F1344FB67D7F88C30002265
:10174400BB65FA65D7E91623D7E91E01FEF758FDF4
:1017540002460B461346C7F8943064E0924B5B682C
:101764009B0900223B657A653B6DC3F30803BB64A8
:101774000023FB64D7E9124522462B464FF00000B4
:101784004FF00001590141EAD261500102460B4673
:101794002146511A3961294663EB01037B614FF0FD
:1017A40000024FF00003D7E904AB59468B015146C0
:1017B40043EA916351468A015146B2EB0108594606
:1017C40063EB01094FF000024FF000034FEAC90335
:1017D40043EA58734FEAC80290469946234618EBE9
:1017E4000303BB602B4649EB0303FB604FF000028D
:1017F4004FF00003D7E9024529468B02214643EA0C
:10180400915321468A0210461946D7F88C3000229B
:101814003B647A64D7E91023FEF7F2FC02460B46D8
:101824001346C7F89430604B5B681B0C03F003034A
:1018340001335B00C7F88830D7F89420D7F8883094
:10184400B2FBF3F3C7F89030A6E0574B5B6803F0A4
:101854003F03C7F88C30544B5B6803F48003002BC0
:101864002AD0514B5B689B090022BB63FA63BB6BB4
:10187400C3F3080000214E4B03FB01F2002300FBDD
:1018840003F313444A4AA0FB02127A670A463A67F2
:101894007A6F13447B67D7F88C3000223B637A63FA
:1018A400D7E90C23D7E91C01FEF7AAFC02460B4634
:1018B4001346C7F894305BE03B4B5B689B090022FE
:1018C400BB62FA62BB6AC3F308033B6200237B6218
:1018D400D7E9088942464B464FF000004FF000011B
:1018E400590141EAD261500102460B464146B2EB2E
:1018F400010A494663EB010B4FF000024FF000036D
:101904004FEA8B1343EA9A634FEA8A12B2EB0A0452
:1019140063EB0B054FF000024FF00003EB0043EACA
:101924005473E20014461D464346E3183B604B469D
:1019340045EB03037B604FF000024FF00003D7E94F
:10194400004529468B02214643EA915321468A02E7
:1019540010461946D7F88C300022BB61FA61D7E9EA
:101964000623FEF74DFC02460B461346C7F8943097
:101974000D4B5B681B0F03F00703C7F88430D7F8DF
:101984009420D7F88430B2FBF3F3C7F8903003E027
:10199400064BC7F8903000BFD7F8903018469837F8
:1019A400BD46BDE8B08F00BF003802400024F400FB
:1019B40040787D0180B586B000AF78607B68002BED
:1019C40001D101238DE27B681B6803F00103002B26
:1019D40000F08380944B9B6803F00C03042B19D014
:1019E400914B9B6803F00C03082B06D18E4B5B686C
:1019F40003F48003B3F5800F0CD08B4B9B6803F08A
:101A04000C030C2B12D1884B5B6803F48003B3F5F1
:101A1400800F0BD1844B1B6803F40033002B5BD085
:101A24007B685B68002B57D101235AE27B685B68B3
:101A3400B3F5803F06D17C4B1B687B4A43F480336B
:101A440013601DE07B685B68B3F5A02F0CD1764B67
:101A54001B68754A43F480231360734B1B68724AF6
:101A640043F4803313600BE06F4B1B686E4A23F41E
:101A7400803313606C4B1B686B4A23F48023136020
:101A84007B685B68002B13D0FFF7FAF9386108E034
:101A9400FFF7F6F902463B69D31A642B01D90323F5
:101AA4001FE2614B1B6803F40033002BF0D014E0F9
:101AB400FFF7E6F9386108E0FFF7E2F902463B690F
:101AC400D31A642B01D903230BE2574B1B6803F48D
:101AD4000033002BF0D100E000BF7B681B6803F0EB
:101AE4000203002B6FD0504B9B6803F00C03002BB8
:101AF40017D04D4B9B6803F00C03082B05D14A4BC0
:101B04005B6803F48003002B0BD0474B9B6803F006
:101B14000C030C2B1CD1444B5B6803F48003002B97
:101B240016D1414B1B6803F00203002B05D07B68E0
:101B3400DB68012B01D00123D3E13B4B1B6823F06D
:101B4400F8027B681B69DB00374913430B603AE0FA
:101B54007B68DB68002B20D0344B01221A60FFF72E
:101B64008FF9386108E0FFF78BF902463B69D31A15
:101B7400022B01D90323B4E12B4B1B6803F00203AE
:101B8400002BF0D0284B1B6823F0F8027B681B69FC
:101B9400DB00254913430B6015E0244B00221A6037
:101BA400FFF76EF9386108E0FFF76AF902463B690E
:101BB400D31A022B01D9032393E11B4B1B6803F0B7
:101BC4000203002BF0D17B681B6803F00803002B91
:101BD40036D07B685B69002B16D0154B01221A6046
:101BE400FFF74EF9386108E0FFF74AF902463B690E
:101BF400D31A022B01D9032373E10B4B5B6F03F060
:101C04000203002BF0D01BE0094B00221A60FFF7FF
:101C140037F938610EE0FFF733F902463B69D31A0E
:101C2400022B07D903235CE100380240000047423D
:101C3400800E47428A4B5B6F03F00203002BEAD10C
:101C44007B681B6803F00403002B00F097800023DB
:101C5400FB75834B1B6C03F08053002B0FD10023C7
:101C6400BB607F4B1B6C7E4A43F0805313647C4BF8
:101C74001B6C03F08053BB60BB680123FB75794B7D
:101C84001B6803F48073002B18D1764B1B68754ACC
:101C940043F480731360FFF7F3F8386108E0FFF74B
:101CA400EFF802463B69D31A022B01D9032318E14A
:101CB4006C4B1B6803F48073002BF0D07B689B682B
:101CC400012B06D1664B1B6F654A43F00103136772
:101CD4001CE07B689B68052B0CD1614B1B6F604A31
:101CE40043F0040313675E4B1B6F5D4A43F001032B
:101CF40013670BE05A4B1B6F594A23F00103136718
:101D0400574B1B6F564A23F0040313677B689B6889
:101D1400002B15D0FFF7B4F838610AE0FFF7B0F8EC
:101D240002463B69D31A41F28832934201D9032314
:101D3400D7E04B4B1B6F03F00203002BEED014E0F3
:101D4400FFF79EF838610AE0FFF79AF802463B690C
:101D5400D31A41F28832934201D90323C1E0404BA4
:101D64001B6F03F00203002BEED1FB7D012B05D189
:101D74003B4B1B6C3A4A23F0805313647B689B698A
:101D8400002B00F0AD80364B9B6803F00C03082B4E
:101D940060D07B689B69022B45D1334B00221A60CB
:101DA400FFF76EF8386108E0FFF76AF802463B690E
:101DB400D31A022B01D9032393E0294B1B6803F0A8
:101DC4000073002BF0D17B68DA697B681B6A1A43C5
:101DD4007B685B6A9B011A437B689B6A5B08013BD7
:101DE4001B041A437B68DB6A1B061A437B681B6B64
:101DF4001B071B4913434B601B4B01221A60FFF75F
:101E04003FF8386108E0FFF73BF802463B69D31A14
:101E1400022B01D9032364E0114B1B6803F0007308
:101E2400002BF0D05CE0104B00221A60FFF728F87A
:101E3400386108E0FFF724F802463B69D31A022B05
:101E440001D903234DE0064B1B6803F00073002BFC
:101E5400F0D145E07B689B69012B07D1012340E069
:101E64000038024000700040600047421F4B5B682E
:101E7400FB607B689B69012B30D0FB6803F4800214
:101E84007B68DB699A4229D1FB6803F03F027B68D7
:101E94001B6A9A4222D1FA6847F6C07313407A68E3
:101EA400526A9201934219D1FB6803F440327B6871
:101EB4009B6A5B08013B1B049A420FD1FB6803F049
:101EC40070627B68DB6A1B069A4207D1FB6803F0E9
:101ED400E0427B681B6B1B079A4201D0012300E0A0
:101EE400002318461837BD4680BD00BF00380240A5
:101EF40080B582B000AF78607B68002B01D10123EC
:101F040042E07B6893F84130DBB2002B06D17B685A
:101F1400002283F840207868FEF7AEFB7B68242219
:101F240083F841207B681B68DA687B681B6822F4AD
:101F34000052DA60786800F047FA7B681B681A6917
:101F44007B681B6822F490421A617B681B685A699B
:101F54007B681B6822F02A025A617B681B68DA6876
:101F64007B681B6842F40052DA607B6800225A6482
:101F74007B68202283F841207B68202283F842205A
:101F84007B6800225A63002318460837BD4680BD8B
:101F940080B58AB002AFF860B9603B601346FB803D
:101FA40000237B61FB6893F84130DBB2202B75D1B1
:101FB400BB68002B02D0FB88002B01D101236EE00B
:101FC400FB6800225A64FB68212283F84120FEF753
:101FD40057FF7861FB68FA889A84FB68FA88DA8488
:101FE400FB689B68B3F5805F08D1FB681B69002B15
:101FF40004D10023FB61BB68BB6103E0BB68FB61E8
:102004000023BB612EE03B6800937B6900228021A2
:10201400F86800F01CF90346002B05D0FB68202269
:1020240083F8412003233AE0FB69002B0BD1BB6901
:102034001B881A46FB681B68C2F308025A60BB6916
:102044000233BB6107E0FB691A78FB681B685A60BE
:10205400FB690133FB61FB68DB8C9BB2013B9AB2E9
:10206400FB68DA84FB68DB8C9BB2002BCBD13B682A
:1020740000937B6900224021F86800F0E8F80346E9
:10208400002B05D0FB68202283F84120032306E0BF
:10209400FB68202283F84120002300E00223184635
:1020A4002037BD4680BD80B588B000AFF860B96008
:1020B4003B601346FB80FB6893F84230DBB2202B75
:1020C40040F0C080BB68002B02D0FB88002B01D1FC
:1020D4000123B8E0FB6800225A64FB68222283F8DB
:1020E4004220FB6801221A63FB6800225A63FEF750
:1020F400C7FE7861FB68FA889A85FB68FA88DA85F6
:10210400FB689B68B3F5805F08D1FB681B69002BF3
:1021140004D10023FB61BB68BB6103E0BB68FB61C6
:102124000023BB613B6800221A8077E0FB681B68D0
:102134001B6803F01003102B17D100233B61FB68CD
:102144001B681B683B61FB681B685B683B613B6900
:102154003B681B88002B08D0FB6802225A63FB688B
:10216400202283F8422000236DE0FB681B681B6873
:1021740003F02003202B3CD1FB69002B0CD1FB681E
:102184001B685B689BB2C3F308039AB2BB691A80ED
:10219400BB690233BB611FE0FB689B68B3F5805FDA
:1021A40007D0FB689B68002B0AD1FB681B69002BD6
:1021B40006D1FB681B685B68DAB2FB691A7008E039
:1021C400FB681B685B68DBB203F07F03DAB2FB6970
:1021D4001A70FB690133FB613B681B8801339AB2B7
:1021E4003B681A80FB68DB8D9BB2013B9AB2FB68AB
:1021F400DA85BB6AB3F1FF3F10D0FEF741FE024619
:102204007B69D31ABA6A9A4202D3BB6A002B05D1FE
:10221400FB68202283F84220032314E0FB68DB8D53
:102224009BB2002B82D1FB689A8DFB68DB8D9BB23D
:10223400D31A9AB23B681A80FB68202283F84220A2
:10224400002300E0022318462037BD4680BD80B538
:1022540086B000AFF860B9603B601346FB713BE0A9
:102264003B6AB3F1FF3F37D0FEF70AFE02463B68F4
:10227400D31A3A6A9A4202D33B6A002B01D1032350
:102284003AE0FB681B68DB6803F00403002B23D0EF
:10229400BB68802B20D0BB68402B1DD0FB681B681B
:1022A4001B6803F00803082B16D100237B61FB682D
:1022B4001B681B687B61FB681B685B687B617B69CF
:1022C400F86800F01DF8FB6808225A64FB680022D5
:1022D40083F8402001230FE0FB681B681A68BB6881
:1022E4001340BA689A420CBF01230023DBB21A469A
:1022F400FB799A42B4D0002318461837BD4680BDF6
:1023040080B495B000AF78607B681B680C337B6346
:102314007B6B53E8003F3B633B6B23F49073FB649C
:102324007B681B680C33FA6C3A64FB63F96B3A6C98
:1023340041E80023BB63BB6B002BE5D17B681B68C2
:1023440014333B623B6A53E8003FFB61FB6923F0B3
:102354000103BB647B681B681433BA6CFA62BB620A
:10236400B96AFA6A41E800237B627B6A002BE5D1F3
:102374007B681B6B012B19D17B681B680C33FB60DA
:10238400FB6853E8003FBB60BB6823F010037B6429
:102394007B681B680C337A6CBA617B617969BA69B2
:1023A40041E800233B613B69002BE5D17B68202297
:1023B40083F842207B6800221A6300BF5437BD466D
:1023C4005DF8047B704700002DE9B04FC0B000AF4A
:1023D400C7F8F400D7F8F4301B681B6923F44050A5
:1023E400D7F8F430D968D7F8F4301A6840EA010312
:1023F4001361D7F8F4309A68D7F8F4301B691A439C
:10240400D7F8F4305B691A43D7F8F430DB69134327
:10241400C7F8F830D7F8F4301B68DB6823F41641AA
:1024240021F00C01D7F8F4301A68D7F8F8300B43D0
:10243400D360D7F8F4301B685B6923F44070D7F895
:10244400F4309969D7F8F4301A6840EA010353610B
:10245400D7F8F4301A688F4B9A4205D0D7F8F43085
:102464001A688D4B9A4204D1FFF7E6F8C7F8FC00CE
:1024740003E0FFF7CDF8C7F8FC00D7F8F430DB69C8
:10248400B3F5004F40F00C81D7F8FC300022C7F8B8
:10249400E830C7F8EC20D7E93A4522462B46911894
:1024A400B9655B41FB65D7E91623214612EB0108A8
:1024B400294643EB01094FF000024FF000034FEAB5
:1024C400C90343EA58734FEAC80290469946234623
:1024D40018EB0303C7F8E0302B4649EB0303C7F8B6
:1024E400E430D7F8F4305B680022C7F8D830C7F876
:1024F400DC20D7E936120B46DB183B65134642EB6A
:1025040003037B65D7E91423D7E93801FDF778FE87
:1025140002460B46614BA3FB02235B091C01D7F85F
:10252400FC300022C7F8D030C7F8D420D7E934896A
:1025340042464B469118B9645B41FB64D7E91223C8
:10254400414612EB010A494643EB010B4FF00002EE
:102554004FF000034FEACB0343EA5A734FEACA022F
:1025640092469B4643461AEB0303C7F8C8304B46D2
:102574004BEB0303C7F8CC30D7F8F4305B68002288
:10258400C7F8C030C7F8C420D7E930120B46DB18AF
:102594003B64134642EB03037B64D7E91023D7E97A
:1025A4003201FDF72DFE02460B4611463B4BA3FBC1
:1025B40001235B09642202FB03F3CB1ADB0003F162
:1025C4003202364BA3FB02235B095B0003F4F8736E
:1025D4001C44D7F8FC300022C7F8B830C7F8BC2038
:1025E400D7E92E8942464B469118B9635B41FB6398
:1025F400D7E90E2341465118396349464B417B6361
:102604004FF000024FF00003D7E90CAB5946CB0062
:10261400514643EA51735146CA00104619460346CF
:1026240042469B18C7F8B0304B460A4642EB0303B8
:10263400C7F8B430D7F8F4305B680022C7F8A83084
:10264400C7F8AC20D7E92A120B46DB18BB62134645
:1026540042EB0303FB62D7E90A23D7E92C01FDF718
:10266400CFFD02460B460D4BA3FB02135B0964210D
:1026740001FB03F3D31ADB003233084AA2FB032322
:102684005B0903F00702D7F8F4301B6822449A6010
:1026940006E100BF00100140001401401F85EB510A
:1026A400D7F8FC300022C7F8A030C7F8A420D7E937
:1026B400288942464B46911839625B417B62D7E9CF
:1026C400082341465418494643EB01054FF00002E4
:1026D4004FF00003EB0043EA5473E20014461D4636
:1026E4004346E318C7F898304B4645EB0303C7F855
:1026F4009C30D7F8F4305B680022C7F89030C7F8F4
:1027040094204FF000024FF00003D7E924452946F6
:102714008B00214643EA917321468A00D7E92601BA
:10272400FDF76EFD02460B46604BA3FB02235B09DB
:102734001C01D7F8FC300022C7F88830C7F88C2079
:10274400D7E9228942464B469118B9615B41FB6146
:10275400D7E9062341465118396149464B417B610B
:102764004FF000024FF00003D7E904AB5946CB0009
:10277400514643EA51735146CA001046194603466E
:1027840042469B18C7F880304B460A4642EB030387
:10279400C7F88430D7F8F4305B680022BB67FA6767
:1027A4004FF000024FF00003D7E91E8949468B0021
:1027B400414643EA917341468A00D7E92001FDF777
:1027C4001FFD02460B461146384BA3FB01235B0950
:1027D400642202FB03F3CB1A1B013233334AA2FBFC
:1027E40003235B0903F0F0031C44D7F8FC300022F8
:1027F4003B677A67D7E91C8942464B469118B96012
:102804005B41FB60D7E902234146511839604946D0
:102814004B417B604FF000024FF00003D7E900AB5F
:102824005946CB00514643EA51735146CA001046FB
:102834001946034642469B18BB664B460A4642EB82
:102844000303FB66D7F8F4305B6800223B667A66C4
:102854004FF000024FF00003D7E9188949468B0076
:10286400414643EA917341468A00D7E91A01FDF7CC
:10287400C7FC02460B460D4BA3FB02135B09642104
:1028840001FB03F3D31A1B013233084AA2FB0323CF
:102894005B0903F00F02D7F8F4301B6822449A60F6
:1028A40000BF07F58077BD46BDE8B08F1F85EB51AB
:1028B40002440346934200D1704703F8011BF9E731
:1028C40070B50D4D0D4C641BA4100026A64209D111
:1028D4000B4D0C4C00F018F8641BA4100026A64203
:1028E40005D170BD55F8043B98470136EEE755F81D
:1028F400043B98470136F2E7B0290008B0290008E4
:10290400B0290008B4290008F8B500BFF8BC08BC19
:102914009E467047F8B500BFF8BC08BC9E46704799
:1029240048656C6C6F2066726F6D20464C4153484D
:10293400210D0A000000000000000000000000005B
:102944000000000000000000000000000000000083
:1029540000000000496E69742052656365697665FC
:10296400640D0A004272616E6368696E6720746F59
:102974002052414D0D0A000048656C6C6F20667250
:102984006F6D20424C210D0A000000000000000081
:10299400000000000102030406070809000000000B
:0429A4000102030425
:0829A8008CD8FF7F0100000044
:0429B000E901000831
:0429B400C501000851
:0C29B8000024F4001000000001000000EA
:0400000508000D6181
:00000001FF
